:020000040800F2
:100000000000012049EF000899EF000847EF0008C1
:1000100099EF000899EF000899EF00080000000030
:1000200000000000000000000000000099EF000840
:1000300099EF0008000000003902000831EF0008C5
:1000400099EF000899EF000899EF000899EF000870
:1000500099EF000899EF0008796F00088D6F00088C
:10006000A16F0008B56F0008C96F000899EF00087C
:1000700099EF000899EF000899EF000899EF000840
:1000800099EF000899EF000899EF000899EF000830
:1000900099EF000899EF000899EF0008DD6F00085C
:1000A00099EF000899EF000899EF000899EF000810
:1000B00099EF0008000000000000000099EF000820
:1000C00099EF000899EF000899EF000899EF0008F0
:1000D00099EF0008C5740008DD740008F574000885
:1000E0000D70000899EF00080000000000000000FB
:1000F0000000000000000000000000000000000000
:100100000000000099EF00080000000099EF0008CF
:10011000000000000000000099EF000899EF0008BF
:1001200099EF000899EF000899EF000899EF00088F
:1001300099EF00080000000000000000000000002F
:1001400099EF000899EF000899EF000899EF00086F
:1001500099EF000899EF00080D75000899EF000865
:1001600099EF000899EF000899EF000800000000DF
:1001700099EF000899EF000899EF000800000000CF
:1001800099EF000899EF000899EF000800000000BF
:1001900010B5054C237833B9044B13B10448AFF3C1
:1001A00000800123237010BD2806002000000000FD
:1001B000A03E0108084B10B51BB108490848AFF331
:1001C00000800848036803B910BD074B002BFBD023
:1001D000BDE81040184700BF000000002C060020BA
:1001E000A03E01082806002000000000EFF3108068
:1001F00072B6704780F3108870471E484FF08051E8
:10020000016070471B484FF08051016070471A48E9
:10021000FF2101701948FF210170002080F3098837
:10022000EFF30880C008C00080F3088811484FF041
:100230008051016062B6FEE772B6EFF3098048B103
:1002400020ED108B243880E8F04F0D4909680860D4
:1002500009F004FB0A480B490A680260106890E83C
:10026000F04F2430B0EC108B80F309884EF0040E70
:1002700062B6704704ED00E022ED00E023ED00E0FF
:10028000183D0020AC40002053B94AB9002908BFEE
:1002900000281CBF4FF0FF314FF0FF3000F07EB957
:1002A000ADF1080C6DE904CE00F006F8DDF804E0CD
:1002B000DDE9022304B070472DE9F0478C460E4675
:1002C0000446089D002B50D18A4217466CD9B2FAD9
:1002D00082FEBEF1000F0BD0CEF1200420FA04F410
:1002E00001FA0EF644EA060C02FA0EF700FA0EF4D2
:1002F0004FEA1749220CBCFBF9F01FFA87F809FBFB
:1003000010C642EA064600FB08F3B34209D9F619C3
:1003100000F1FF3280F02281B34240F21F810238A7
:100320003E44F61AA2B2B6FBF9F309FB136642EAA1
:10033000064403FB08F8A04509D9E41903F1FF328C
:1003400080F00A81A04540F20781023B3C44C8EBA3
:10035000040443EA00400021002D62D024FA0EF488
:1003600000232C606B60BDE8F0878B4207D9002D1D
:1003700055D0002185E841000846BDE8F087B3FA72
:1003800083F1002940F09080B34202D3824200F210
:10039000F880841A66EB03060120B446002D40D095
:1003A00085E81010BDE8F08712B90127B7FBF2F716
:1003B000B7FA87FEBEF1000F35D1F31B4FEA17489D
:1003C0001FFA87FC0121B3FBF8F0220C08FB103662
:1003D00042EA06460CFB00F3B34207D9F61900F1D6
:1003E000FF3202D2B34200F2CE801046F61AA2B219
:1003F000B6FBF8F308FB136642EA06440CFB03FC69
:10040000A44507D9E41903F1FF3202D2A44500F252
:10041000B5801346CCEB040443EA00409CE7294630
:100420002846BDE8F087CEF1200106FA0EF307FA60
:100430000EF720FA01F94FEA1748CE4049EA0309BE
:10044000B6FBF8FA4FEA194408FB1A661FFA87FC54
:1004500044EA06430AFB0CF29A4200FA0EF40AD967
:10046000DB190AF1FF3180F087809A4240F28480E4
:10047000AAF1020A3B449B1A1FFA89F9B3FBF8F16F
:1004800008FB113349EA034301FB0CF69E4207D9EE
:10049000DB1901F1FF326BD29E4269D902393B442C
:1004A0009B1B41EA0A418EE7C1F1200E22FA0EF4AD
:1004B0008B40234320FA0EF706FA01F44FEA134C5F
:1004C00026FA0EF63C43B6FBFCF9270C0CFB19662A
:1004D0001FFA83F847EA064609FB08F7B74202FA13
:1004E00001F200FA01FA08D9F61809F1FF3041D2F9
:1004F000B7423FD9A9F102091E44F61BA0B2B6FBD0
:10050000FCF40CFB146640EA064704FB08F8B84507
:1005100007D9FF1804F1FF3028D2B84526D9023C8C
:100520001F4444EA0940C8EB0707A0FB02894F4576
:1005300044464E4614D329D065B3BAEB040367EBA7
:10054000060707FA0EFECB40CF404EEA030385E8CC
:1005500088000021BDE8F0871346F8E61046E0E683
:10056000B8EB020469EB03060138E5E70446D8E777
:10057000114695E78146C0E78A467CE7023B3C444A
:1005800048E708460AE702383E442FE7C245E7D36A
:100590003E46D1E72946BDE8F08700BF704700BF5F
:1005A00010F8012B11F8013B012A28BF9A42F7D01D
:1005B000D01A7047034613F8012B002AFBD1181AF2
:1005C000013870470000000000000000000000003B
:1005D00001F0FF01102A2BDB10F0070F08D010F8F4
:1005E000013B013A8B422DD010F0070F42B3F6D1F8
:1005F000F0B441EA012141EA014122F007047FF011
:1006000000070023F0E80256083C85EA010586EA67
:10061000010685FA47F5A3FA87F586FA47F6A5FAA3
:1006200087F68EB9EED1F0BC01F0FF0102F00702AF
:1006300032B110F8013B013A83EA010313B1F8D15A
:100640000020704701387047002D06BF354603383B
:10065000073815F0010F07D1013015F4807F02BF74
:10066000013015F4C03F0130F0BC0138704700BFC5
:1006700081F0004102E000BF83F0004330B54FEA53
:1006800041044FEA430594EA050F08BF90EA020FC0
:100690001FBF54EA000C55EA020C7FEA645C7FEA53
:1006A000655C00F0E2804FEA5454D4EB5555B8BF76
:1006B0006D420CDD2C4480EA020281EA030382EAE7
:1006C000000083EA010180EA020281EA0303362D79
:1006D00088BF30BD11F0004F4FEA01314FF4801C4C
:1006E0004CEA113102D0404261EB410113F0004F5E
:1006F0004FEA03334CEA133302D0524263EB430315
:1007000094EA050F00F0A780A4F10104D5F1200EB2
:100710000DDB02FA0EFC22FA05F2801841F100010D
:1007200003FA0EF2801843FA05F359410EE0A5F1E1
:1007300020050EF1200E012A03FA0EFC28BF4CF012
:10074000020C43FA05F3C01851EBE37101F00045C8
:1007500007D54FF0000EDCF1000C7EEB00006EEBD5
:100760000101B1F5801F1BD3B1F5001F0CD349085F
:100770005FEA30004FEA3C0C04F101044FEA4452B6
:1007800012F5800F80F09A80BCF1004F08BF5FEA3D
:10079000500C50F1000041EB045141EA050130BD1D
:1007A0005FEA4C0C404141EB010111F4801FA4F1C0
:1007B0000104E9D191F0000F04BF01460020B1FA15
:1007C00081F308BF2033A3F10B03B3F120020CDA4D
:1007D0000C3208DD02F1140CC2F10C0201FA0CF02B
:1007E00021FA02F10CE002F11402D8BFC2F1200C90
:1007F00001FA02F120FA0CFCDCBF41EA0C01904046
:10080000E41AA2BF01EB0451294330BD6FEA04048E
:100810001F3C1CDA0C340EDC04F11404C4F1200279
:1008200020FA04F001FA02F340EA030021FA04F38B
:1008300045EA030130BDC4F10C04C4F1200220FAE2
:1008400002F001FA04F340EA0300294630BD21FA20
:1008500004F0294630BD94F0000F83F4801306BFE6
:1008600081F480110134013D4EE77FEA645C18BFDA
:100870007FEA655C29D094EA050F08BF90EA020F71
:1008800005D054EA000C04BF1946104630BD91EA69
:10089000030F1EBF0021002030BD5FEA545C05D16C
:1008A0004000494128BF41F0004130BD14F58004AB
:1008B0003CBF01F5801130BD01F0004545F0FE411F
:1008C00041F470014FF0000030BD7FEA645C1ABF54
:1008D000194610467FEA655C1CBF0B46024650EA8B
:1008E000013406BF52EA033591EA030F41F40021B7
:1008F00030BD00BF90F0000F04BF0021704730B53D
:100900004FF4806404F132044FF000054FF0000111
:1009100050E700BF90F0000F04BF0021704730B5D2
:100920004FF4806404F1320410F0004548BF4042A7
:100930004FF000013EE700BF42004FEAE2014FEAFC
:1009400031014FEA02701FBF12F07F4393F07F4FD7
:1009500081F06051704792F0000F14BF93F07F4F09
:10096000704730B54FF4607401F0004521F000414C
:1009700020E700BF50EA010208BF704730B54FF0D2
:1009800000050AE050EA010208BF704730B511F0D7
:10099000004502D5404261EB41014FF4806404F10F
:1009A00032045FEA915C3FF4DCAE4FF003025FEA91
:1009B000DC0C18BF03325FEADC0C18BF033202EB19
:1009C000DC02C2F1200300FA03FC20FA02F001FA73
:1009D00003FE40EA0E0021FA02F11444C1E600BF12
:1009E00070B54FF0FF0C4CF4E06C1CEA11541DBFC5
:1009F0001CEA135594EA0C0F95EA0C0F00F0DEF890
:100A00002C4481EA030621EA4C5123EA4C5350EA74
:100A1000013518BF52EA033541F4801143F48013C5
:100A200038D0A0FB02CE4FF00005E1FB02E506F056
:100A30000042E0FB03E54FF00006E1FB03569CF0AB
:100A4000000F18BF4EF0010EA4F1FF04B6F5007FB1
:100A500064F5407404D25FEA4E0E6D4146EB060623
:100A600042EAC62141EA55514FEAC52040EA5E50AC
:100A70004FEACE2EB4F1FD0C88BFBCF5E06F1ED856
:100A8000BEF1004F08BF5FEA500E50F1000041EB8D
:100A9000045170BD06F0004646EA010140EA02003A
:100AA00081EA0301B4EB5C04C2BFD4EB0C0541EA5C
:100AB000045170BD41F480114FF0000E013C00F371
:100AC000AB8014F1360FDEBF002001F0004170BD95
:100AD000C4F10004203C35DA0C341BDC04F11404AE
:100AE000C4F1200500FA05F320FA04F001FA05F23A
:100AF00040EA020001F0004221F0004110EBD37007
:100B000021FA04F642EB06015EEA430E08BF20EA32
:100B1000D37070BDC4F10C04C4F1200500FA04F3D5
:100B200020FA05F001FA04F240EA020001F0004167
:100B300010EBD37041F100015EEA430E08BF20EADA
:100B4000D37070BDC4F1200500FA05F24EEA020E22
:100B500020FA04F301FA05F243EA020321FA04F051
:100B600001F0004121FA04F220EA020000EBD37008
:100B70005EEA430E08BF20EAD37070BD94F0000F08
:100B80000FD101F00046400041EB010111F4801F3C
:100B900008BF013CF7D041EA060195F0000F18BFED
:100BA000704703F00046520043EB030313F4801F29
:100BB00008BF013DF7D043EA0603704794EA0C0FE3
:100BC0000CEA135518BF95EA0C0F0CD050EA4106F9
:100BD00018BF52EA4306D1D181EA030101F0004176
:100BE0004FF0000070BD50EA410606BF104619469E
:100BF00052EA430619D094EA0C0F02D150EA0136AA
:100C000013D195EA0C0F05D152EA03361CBF1046EA
:100C100019460AD181EA030101F0004141F0FE4189
:100C200041F470014FF0000070BD41F0FE4141F40D
:100C3000780170BD70B54FF0FF0C4CF4E06C1CEA0D
:100C400011541DBF1CEA135594EA0C0F95EA0C0FC2
:100C500000F0A7F8A4EB050481EA030E52EA03357D
:100C60004FEA013100F088804FEA03334FF080559E
:100C700045EA131343EA12634FEA022245EA1115CB
:100C800045EA10654FEA00260EF000419D4208BF7C
:100C9000964244F1FD0404F5407402D25B084FEA29
:100CA0003202B61A65EB03055B084FEA32024FF4D5
:100CB00080104FF4002CB6EB020E75EB030E22BF32
:100CC000B61A754640EA0C005B084FEA3202B6EBF2
:100CD000020E75EB030E22BFB61A754640EA5C00A1
:100CE0005B084FEA3202B6EB020E75EB030E22BF31
:100CF000B61A754640EA9C005B084FEA3202B6EB32
:100D0000020E75EB030E22BFB61A754640EADC00F0
:100D100055EA060E18D04FEA051545EA16754FEA52
:100D200006164FEAC30343EA52734FEAC2025FEA70
:100D30001C1CC0D111F4801F0BD141EA00014FF0FF
:100D400000004FF0004CB6E711F4801F04BF0143D0
:100D50000020B4F1FD0C88BFBCF5E06F3FF6AFAEEC
:100D6000B5EB030C04BFB6EB020C5FEA500C50F17C
:100D7000000041EB045170BD0EF0004E4EEA1131FF
:100D800014EB5C04C2BFD4EB0C0541EA045170BD06
:100D900041F480114FF0000E013C90E645EA060E4A
:100DA0008DE60CEA135594EA0C0F08BF95EA0C0F78
:100DB0003FF43BAF94EA0C0F0AD150EA01347FF4C0
:100DC00034AF95EA0C0F7FF425AF104619462CE797
:100DD00095EA0C0F06D152EA03353FF4FDAE1046FA
:100DE000194622E750EA410618BF52EA43067FF44B
:100DF000C5AE50EA41047FF40DAF52EA43057FF4DB
:100E0000EBAE12E74FF0FF3C06E000BF4FF0010CE5
:100E100002E000BF4FF0010C4DF804CD4FEA410C49
:100E20007FEA6C5C4FEA430C18BF7FEA6C5C1BD016
:100E300001B050EA410C0CBF52EA430C91EA030F97
:100E400002BF90EA020F0020704710F1000F91EAF4
:100E5000030F58BF994208BF90422CBFD8176FEAC2
:100E6000E37040F0010070474FEA410C7FEA6C5C90
:100E700002D150EA013C07D14FEA430C7FEA6C5C97
:100E8000D6D152EA033CD3D05DF8040B704700BFC3
:100E90008446104662468C461946634600E000BF11
:100EA00001B5FFF7B7FF002848BF10F1000F01BDE3
:100EB0004DF808EDFFF7F4FF0CBF012000205DF8AE
:100EC00008FB00BF4DF808EDFFF7EAFF34BF012033
:100ED00000205DF808FB00BF4DF808EDFFF7E0FFCC
:100EE00094BF012000205DF808FB00BF4DF808ED1D
:100EF000FFF7CEFF94BF012000205DF808FB00BF84
:100F00004DF808EDFFF7C4FF34BF012000205DF865
:100F100008FB00BF4FEA410C7FEA6C5C02D150EA4B
:100F2000013C0AD14FEA430C7FEA6C5C02D152EAE1
:100F3000033C02D14FF0000070474FF001007047B2
:100F40004FEA410212F5001215D211D56FF47873F1
:100F5000B3EB625212D94FEAC12343F0004343EA94
:100F6000505311F0004F23FA02F018BF404270476F
:100F70004FF00000704750EA013005D111F00040F9
:100F800008BF6FF0004070474FF00000704700BF8F
:100F9000014B1860704700BF00000020014B5860F3
:100FA000704700BF0400002010B5034C6061FFF7DC
:100FB00001FB606210BD00BF0400002070B5094C49
:100FC0000E461546E1602261A060FFF7F3FAA061CA
:100FD0003046FFF7EFFAE0612846FFF7EBFA2062B0
:100FE00070BD00BF0400002008B505480EF0A5FB49
:100FF00020B10348BDE808400EF0E8BC08BD00BFC2
:10100000BC00002008B505480EF097FB20B103484E
:10101000BDE808400EF0DABC08BD00BFC4000020E7
:101020002DE9F74F171E054689469A4600DBA8B9F9
:10103000444B1B6898070ED50EF07EFE424B434A88
:101040000146434803F01CF83F49404803F018F8B4
:10105000404803F015F84FF0FF306FE03E4BD3F8F7
:10106000B440042C1E4604DC4FF000084FF01C0B6B
:1010700017E0344B1B685907EDD50EF05DFE374A7B
:101080000146374802F0FCFF344802F0F9FFDFE781
:101090000BFB08632846996AFFF782FA20B108F132
:1010A00001084445F4DC0EE0264B1B685A07D2D5F4
:1010B0000EF042FE2B4601462A4A294802F0E0FF84
:1010C00029462848C2E74FF01C0808FB0468631C47
:1010D0004FF0000BC6F8B430C8F830B0B9F1000FCB
:1010E0001FD038460EF0BCFBC8F83000A8B9154B2D
:1010F0001B689B07AFD50EF01FFE134C01953B46B6
:1011000001460094184A124802F0BAFF2B462246C4
:101110003946154802F0B4FF9AE73A4659460FF0AF
:1011200066FE1C2303FB04630C9A9F6300209D62F0
:10113000C3F82C90C3F83CA01A64586303B0BDE810
:10114000F08F00BF70010020E43E0108063F010857
:101150001A3F01086E47010804000020253F0108DE
:101160003D3F0108483F01086A3F01082DE9FF4162
:10117000294B1B7880460E468BB9284B1B689A0773
:1011800044D50EF0D9FD264A0146264802F078FFE4
:10119000234802F075FF244802F072FF36E04FF05A
:1011A000FF312248224F0EF07BF80024B44223D2B4
:1011B0007B680093321B03AB08EB0401386806F030
:1011C00077FB054688B1154B1B689B0715D50EF0BC
:1011D000B3FD184A0146134802F052FF154802F0C9
:1011E0004FFF114802F04CFF07E0039B002BDDD0BE
:1011F0001C44A642DAD800E000250C480EF0CCF8DA
:10120000002D0CBF20464FF0FF3001E04FF0FF30C3
:1012100004B0BDE8F08100BF44060020700100204A
:10122000973F01081A3F01086E470108BC000020E3
:1012300004000020AE3F01087FB50023039306465B
:1012400098B11D4B1B789BB91C4B1B689B070CD599
:101250000EF072FD1A4A01461A4802F011FF1848B2
:1012600002F00EFF184802F00BFF4FF0FF3021E0B4
:10127000164D95F8C440012CF7D14FF0FF3105F120
:10128000B8000EF00DF86B680093224603AB0DF129
:101290000B01286806F00CFB044605F1B8000EF0BF
:1012A0007BF8002CE1D1039B012BDED19DF80B30A4
:1012B0003370204604B070BD440600207001002049
:1012C000973F01081A3F01086E47010804000020FB
:1012D0002DE9F04F4FF400708BB00EF0C1FA80464C
:1012E000B0B9B24B1B6899070CD50EF025FDB04A7A
:1012F0000146B04802F0C4FEAD4802F0C1FEAE485F
:1013000002F0BEFE00200DF032FF0BB0BDE8F08F02
:1013100000274FF400720021DFF8A0B20FF067FD44
:101320003D46059704970397A44B93F8C430012BCF
:1013300002D001200EF002FD0DF12700FFF77CFF27
:101340000028F1D1B5F5FF7F11DD984B1B689A0796
:10135000EAD50EF0F1FC9A4A0146964802F090FE5A
:10136000974802F08DFE944802F08AFEDCE76B1C81
:101370009DF9272008F80520904C08F803001D4629
:1013800006908E4B069AD3F8B4309A4280F2AA8027
:10139000D4F834A0BAF1000F10D1D4F82890484600
:1013A000FFF708F9A842024600F29780291A414443
:1013B00048460FF0E7FC002840F08F80D4F82C90CE
:1013C000B9F1000F12D1E36B206C4A4649469847A9
:1013D000A06AFFF7EFF8281A2A46494640440FF062
:1013E00006FDA06AFFF7E6F82D1A76E0BAF1000FC5
:1013F00015D1A26B206B51460FF0F9FCD4F8289060
:101400004846FFF7D7F84946421E206B0FF0C9FC4B
:10141000A06AFFF7CFF8636B013B18446063636B0E
:10142000A26B934231D2226B9DF92710D154636B8A
:10143000A06A03F10109C4F83490FFF7BBF8D4F8AF
:101440002CA007905046FFF7B5F8079B0344994539
:10145000024639D3236B0793C0EB09005146184469
:1014600010F011FC079B824600282DD119464A46F0
:10147000206CE36B9847626B206B51460FF0B7FC12
:10148000C4F834A02A46514623E0484B1B689B070A
:1014900011D50EF051FC236B00930146A36A494A13
:1014A000444802F0EDFD226BA16A464802F0E8FDD7
:1014B000414802F0E5FD626B206B00210FF097FCC4
:1014C000002161632A4604E0B5F5FF7F05DD2A4669
:1014D000002140460FF08BFC0025069B013306934C
:1014E0001C344EE74FF0FF3137480DF0D9FE334B37
:1014F000D3F8C84003F1C000002C18BF26460DF0F9
:101500004BFF002C77D0316909B1F3691BB9DBF8C7
:101510000810DBF81830D6F814900493B9F1000FD6
:1015200001D0336A1BB9DBF80C90DBF81C30B469CE
:1015300005930CB1776A1FB9DBF81040DBF8207017
:10154000049B9D4209DB039B3BB9049BE81A1A46A6
:10155000404410F098FB18B14DE0039B002B4AD09B
:10156000B36AF26AF068934230D29DF92720C254E0
:10157000B06A059B00F1010A9A45C6F828A008D375
:10158000C3EB0A00F368059A4946184410F07BFB48
:1015900018B3BA452DD3F068C7EB0A0A3A4621467C
:1015A000504410F070FB20BB17E000BF700100201A
:1015B000CB3F01081A3F01086E47010804000020D4
:1015C000F33F01081B400108C400002000210FF078
:1015D0000EFC2146F06810F04EFB301D0DF0BFFFF1
:1015E0002A46002140460FF002FC002303931D46CB
:1015F0009AE601230393B5F5FF7F7FF795AE0D487B
:1016000010F024FA049B059A9342B8BF1346BB42DC
:101610001C46B8BF3C462D1B08EB05012246404640
:101620000FF0BFFB2A46002108EB04000FF0DFFBA0
:10163000254679E64540010838B50A4C94F8C4308F
:10164000834205460DD004F1B8004FF0FF310DF094
:1016500027FE84F8C45004F1B800BDE838400DF00E
:101660009BBE38BD0400002070B5184B1B780646A1
:101670000C469BB9164B1B689B070CD50EF05CFB08
:10168000144A0146144802F0FBFC124802F0F8FC30
:10169000124802F0F5FC4FF0FF3070BD104D4FF0D6
:1016A000FF3105F1BC000DF0FBFD31464FF0FF337B
:1016B0002246286806F0AAF8064605F1BC000DF09F
:1016C0006BFE002EE7D1204670BD00BF440600200F
:1016D00070010020973F01081A3F01086E4701087A
:1016E0000400002037B5204B8DF807001B7863B944
:1016F0001E4B1B689A0733D50EF01EFB1C4A014691
:101700001C4802F0BDFC1A4810E01B4D95F8C4407F
:10171000012C11D0154B1B689B0721D50EF00CFB3B
:10172000164A0146134802F0ABFC144802F0A8FC2C
:10173000134802F0A5FC13E04FF0FF3105F1BC00A7
:101740000DF0AEFD22466B6828680DF1070106F02A
:101750005DF8044605F1BC000DF01EFE204601E0D8
:101760004FF0FF3003B030BD440600207001002070
:10177000973F01081A3F0108040000205340010868
:101780006E47010838B51A4D04464FF0FF3105F198
:10179000BC000DF085FD34B32046FEF70BFF6B68EF
:1017A00002462146286806F031F8E0B1114B1B686B
:1017B0009B070ED50EF0C0FA234601460E4A0F488D
:1017C00002F05EFC21460C4802F05AFC0C4802F084
:1017D00057FC0C480DF0E0FD0B4B0C4A0C4840F256
:1017E00085210FF0D1F807480DF0D6FD002038BD57
:1017F00004000020700100207C4001081A3F01080D
:101800006E470108C0000020915901085D4301089E
:101810009E4001082DE9F8431F46584B1B7880462F
:101820000E4614466BB9564B1B689C0740F1A180CD
:101830000EF082FA534A0146534802F021FC514807
:1018400012E0524D95F8C430012BA94612D04C4BF2
:101850001B68980740F18D800EF06EFA4C4A0146E5
:10186000494802F00DFC4A4802F00AFC494802F0DF
:1018700007FC7EE0002979D0002A77D04FF0FF31B5
:1018800005F1BC000DF00CFDB8F1000F22D0404670
:10189000FEF790FE6B6802464146286805F0B6FFE9
:1018A000C0B1374B1B6899070CD50EF045FA3A4A80
:1018B0000146354802F0E4FB374802F0E1FB3548C9
:1018C00002F0DEFB35480DF067FD354B354A40F23E
:1018D000422145E0D9F80430D9F800002B4D2246CA
:1018E000314605F093FFC0B1254B1B689A070CD514
:1018F0000EF022FA2C4A0146234802F0C1FB2A4886
:1019000002F0BEFB234802F0BBFB24480DF044FD6F
:10191000234B244A40F2522122E027B33846FEF7F7
:1019200049FE6B6802463946286805F06FFFD0B162
:10193000134B1B689B070CD50EF0FEF91B4A0146A2
:10194000114802F09DFB194802F09AFB114802F081
:1019500097FB12480DF020FD114B124A40F2622114
:1019600013480FF011F80D480DF016FD0020BDE8EA
:10197000F8834FF0FF30BDE8F88300BF4406002035
:1019800070010020973F01081A3F01080400002061
:10199000BC4001086E470108E5400108C000002076
:1019A0009159010842430108044101081C41010802
:1019B0009E4001082DE9F84FDDF828B0894692468F
:1019C0001F46804628B121B11AB113B1BBF1000FF7
:1019D00010DA7F4B1B689E0772D50EF0ADF97D4B78
:1019E0007D4A01467D4802F04BFB7A497A4802F075
:1019F00047FB62E07A4E3378012B12D1744B1B689F
:101A00001D070CD50EF098F9764A0146764802F08B
:101A100037FB744802F034FB744802F031FB0023BA
:101A20003370734C012323704FF4E133636003235D
:101A3000237200236372A372E3722046022323738E
:101A400005F070FD014650BB6A4D28468C2240F8D7
:101A5000284B0FF0CCF9524649464046C5F804B031
:101A6000FFF7ACFA3846FFF79FFA05F1B8000DF022
:101A700035FF002834D0564B1A6812F0020F1C466E
:101A800022D00EF059F95C4A0146544802F0F8FAA7
:101A9000594802F0F5FA554802F0F2FA14E04C4BBE
:101AA0001B6898070CD50EF047F9544A01464B487D
:101AB00002F0E6FA514802F0E3FA4C4802F0E0FA8C
:101AC0004FF0FF30BDE8F88F23689907F8D50EF086
:101AD00033F94B4A0146414802F0D2FA4848EAE756
:101AE00005F1C0000DF0FAFE00B3394B1A6812F090
:101AF000020F1C460CD00EF01FF9424A014637482F
:101B000002F0BEFA3F4802F0BBFA384802F0B8FAD9
:101B1000FFF76AFA23689A07D2D50EF00DF93A4A10
:101B200001462E4802F0ACFA3748C4E7C5F8C800B1
:101B300005F1BC000DF0D2FE30B3254B1A6812F04F
:101B4000020F1C460CD00EF0F7F8304A014623482D
:101B500002F096FA2D4802F093FA244802F090FA27
:101B6000FFF742FAFFF74EFA23689B070CD50EF0F9
:101B7000E3F8274A0146194802F082FA244802F0A5
:101B80007FFA1A4802F07CFA224B23491B6823484B
:101B900000220DF004FAB8B1FFF726FAFFF732FA87
:101BA0001F480DF0CAFD10B11D480DF00FFF084B86
:101BB0001B689C0784D50EF0BFF81A4A01460748F7
:101BC00002F05EFA174876E701233370BDE8F88F1C
:101BD00070010020FE3E01083B4101081A3F010848
:101BE00044060020504101087A4101086E4701086F
:101BF00048060020040000209A41010885410108A0
:101C0000B5410108D0410108ED4101080342010836
:101C10002342010800000020D112000841420108BF
:101C2000C00000204B42010838B5044698B91B4B50
:101C30001B689B072ED50EF07FF8194B194A0146F9
:101C4000194802F01DFA1649164802F019FA174809
:101C500002F016FA1EE04FF0FF3115480DF020FBA0
:101C6000144A136833B1A34202D12368136001E020
:101C70001A46F6E70E48251D0DF08EFB28460DF09E
:101C80005AFD10B128460DF027FF20460DF022FE28
:101C9000002038BD4FF0FF3038BD00BF700100207C
:101CA000EB3E0108634201081A3F01086E47010834
:101CB000C4000020CC00002038B5054698B9144B6C
:101CC0001B689B0720D50EF037F8124B124A0146CD
:101CD000124802F0D5F90F490F4802F0D1F9104827
:101CE00002F0CEF910E04FF0FF310E480DF0D8FAB7
:101CF0000D4B1C680CB12346FBE72C6009481D60A6
:101D00000DF04AFB204638BD4FF0FF3038BD00BF14
:101D10007001002070430108634201081A3F010866
:101D20006E470108C4000020CC0000202DE9F84FC8
:101D30009946724B1B7807468A46934663B9704BA7
:101D40001B689A072ED50DF0F7FF6E4A01466E48C4
:101D500002F096F96B4840E06C4D95F8C430012BC9
:101D60000CD0674B1B689B071CD50DF0E5FF684A3C
:101D70000146654802F084F965482EE0B0B9604B31
:101D80001B689F070ED50DF0D7FF624B624A0146D4
:101D90005D4802F075F95F495F4802F071F95F48EC
:101DA00002F06EF94FF0FF30BDE8F88FB9F1000F87
:101DB000E5D00A9B002BE2D030200DF051FD064605
:101DC00070B94F4B1B689E07ECD50DF0B5FF544A18
:101DD00001464D4802F054F9514802F051F9DEE74E
:101DE0003022002106F104080FF001F800214046DE
:101DF0000DF0F8FD044660B1414B1B689D0774D59A
:101E00000DF09AFF474A01463F4802F039F945482C
:101E100066E00A9BF3624FF0FF31B760C6F80C90A2
:101E200005F1BC000DF03CFA3046FFF745FF38469F
:101E3000FEF7C0FB6B6802463946286805F0E6FCF1
:101E4000044660B12E4B1B6898074ED50DF074FF09
:101E5000354A01462C4802F013F9334840E06C69DA
:101E60002046FEF7A7FB214602466B68286805F06E
:101E7000CDFC044660B1224B1B68990735D50DF0A7
:101E80005BFF2A4A0146204802F0FAF8274827E07B
:101E90006B6828685A46514605F0B8FC044660B1A4
:101EA000174B1B689A0720D50DF046FF204A0146C4
:101EB000154802F0E5F81E4812E041F2883140462C
:101EC0000DF0D7FA044680B10D4B1B689B070CD56B
:101ED0000DF032FF174A01460B4802F0D1F81548C1
:101EE00002F0CEF80D4802F0CBF83046FFF79CFE2A
:101EF00011480DF051FA2046BDE8F88F4406002045
:101F000070010020973F01081A3F010804000020DB
:101F1000774201082E430108063F01086E47010879
:101F2000A3420108C0420108DD420108F64201084F
:101F30001143010847620108C00000202DE9F74F56
:101F40006C4C05468B4604F1BC004FF0FF311F4638
:101F500016460DF0A5F92846FEF72CFB664B0190BE
:101F60001B78A14663B9654B1B689E071DD50DF014
:101F7000E3FE634A0146634802F082F860480FE0DE
:101F800094F8C430012B13D05C4B1B689D070CD513
:101F90000DF0D2FE5C4A01465A4802F071F85A48E8
:101FA00002F06EF8594802F06BF84FF0FF349AE0F7
:101FB000BBF1000F00D086B9504B1B689C07F4D5CD
:101FC0000DF0BAFE524B534A01464E4802F058F803
:101FD0004F49504802F054F8E4E730200DF040FC3F
:101FE000044660B9454B1B689807DED50DF0A4FE8A
:101FF000494A0146434802F043F84748D0E73022B7
:10200000002104F104080EF0F2FE002140460DF01C
:10201000E9FC824660B1394A126891075FD50DF03C
:102020008BFE3E4A0146374802F02AF83B4831E031
:1020300027B127613846FEF7BDFAE0610C9B23B15A
:1020400063611846FEF7B6FA20620D9B23B1A361C7
:102050001846FEF7AFFA6062E662A560C4F80CB0FD
:102060002046FFF729FED9F80430019AD9F800007C
:10207000204E294605F0CAFB824688B11F4A1268E5
:1020800092072CD50DF058FE254A01461D4801F057
:10209000F7FF234801F0F4FF1C4801F0F1FF1EE0B8
:1020A00075692846FEF786FA736802462946306845
:1020B00005F0ACFB824660B1104A126893070ED55A
:1020C0000DF03AFE174A01460E4801F0D9FF1548B7
:1020D000E0E741F2883140460DF0CBF982462046D8
:1020E000FFF7A2FD544610480DF056F9204603B004
:1020F000BDE8F08F0400002044060020700100209D
:10210000973F01081A3F0108774201086E4701080E
:1021100083430108063F0108A3420108C0420108A9
:10212000DD420108F6420108C000002007B5194B46
:102130001B7863B9184B1B689A0725D50DF0FCFD79
:10214000164A0146164801F09BFF144810E0154B53
:1021500093F8C430012B11D00F4B1B689B0713D58C
:102160000DF0EAFD104A01460D4801F089FF0E48C6
:1021700001F086FF0D4801F083FF05E00023019385
:102180000093FFF7DBFE01E04FF0FF3003B05DF896
:1021900004FB00BF4406002070010020973F0108A7
:1021A0001A3F010804000020BC4001086E470108E6
:1021B000014B01221A6070472008002000200CF01B
:1021C000D6BF00004FF480530022024902480CF0B1
:1021D000E6BE00BFBD210008B4430108134B1B68D5
:1021E00070B5C3B10268C2B18268B2B1D3F8082138
:1021F0003F2A15D8541C191D03EB8405A94204D0AD
:1022000051F8046FB042F9D10DE00232C3F8084131
:1022100043F8220007E0012070BD6FF0150070BD8B
:102220006FF00B0070BD002070BD00BFDC07002008
:10223000F8B50A4B1B6806460D4663B100240C270F
:10224000AC4207FB046004DAFFF7C8FF20B9013491
:10225000F6E70020F8BD0120F8BD00BFDC07002034
:1022600010B5044686B01422002101A80EF0BFFD6F
:1022700094F900304BB12046FEF79CF94FF0FF3344
:102280000246214601A805F0C1FA002006B010BDA3
:102290000FB400B5C3B04FF48072002102A80EF055
:1022A000A6FD0F4B187830B10E4902A80FF0E3FCE1
:1022B0000C48FEF77FF90DF1080E45ABC0F58071B3
:1022C000449A019370440FF013FE002802DD02A827
:1022D000FFF7C6FF002043B05DF804EB04B0704781
:1022E00024080020E00700207FB540F618700DF0AC
:1022F000B7FA1C4D28602E4668B340F618720021CC
:102300000EF075FD08211848FFF792FF0446D0B97A
:102310004FF4006221238DE80C001449144A03464F
:1023200003A80CF0B1FE044620B101461148FFF7A6
:10233000AFFF08E02B68012283E814000CF0C2FC18
:1023400001F02AFF0AE0306840B10DF0C3FA054BF6
:1023500000221A6002E06FF00B0000E0204604B09B
:1023600070BD00BFDC0700200C460108BE43010819
:10237000ED240008C243010808B50DF0DDFCBDE8FE
:10238000084001460148FFF783BF00BFEB43010847
:1023900008B50348FFF77CFFBDE8084005F04EBBD9
:1023A000FC43010808B507F00DFBBDE808400146F5
:1023B0000148FFF76DBF00BF05440108014902480D
:1023C000FFF766BF1A44010825440108012A38B501
:1023D0000DD1144B144A1B6814485968144B00293A
:1023E00014BF11461946BDE83840FFF751BF5C687D
:1023F00010492046FEF7D4F8054630B90E48FFF7DD
:1024000047FF084B1B685D6038BD0C492046FEF74E
:10241000C7F830B90A48FFF73BFF024B1B6801229F
:102420005A6038BDDC0700203744010848440108E1
:1024300040440108C66B0108734401088144010847
:1024400085440108F8B51448144E154FFFF720FFD6
:102450001448FFF71DFF002425463368D3F80821F0
:10246000A24217D9AA1C53F82230196879B15A68C8
:102470000D48002A08BF3A460134FFF709FF082C2F
:1024800005D10A48FFF704FF0948FFF701FF0135AE
:10249000402DE2D1F8BD00BF94440108DC070020C4
:1024A00070470108B0440108E04401086E47010884
:1024B000E944010830B5002489B0054614222146BC
:1024C00003A802940EF093FC4FF0FF330093012217
:1024D00002AB294603A805F0EBF920B90298431E88
:1024E0005842584100E0204609B030BD2DE9F04F78
:1024F00091B0BE4BDFF82CB31C68002C40F0328347
:10250000DBF8005015F5887601D1B94811E3D5F80C
:10251000143A0522043393FBF2F202EB82029B1A77
:102520004FF0FF37C5F8103AB8460AA8FFF7C2FFC8
:102530000128DED19DF928300A2B01D00D2B25D1A1
:10254000D5F80C210023B354C5F80C31DBF800504A
:1025500095F9103105F58874002B00F0C081D5F88D
:10256000140A05EB00204FF48072214600F6182073
:102570000FF09EFBD5F8143A0522013393FBF2F2DB
:1025800002EB82029B1AC5F8143AA8E11B2B00F05B
:102590009B81002C00F0D680B8F1000F1CDA5B2B79
:1025A000984600F09481D5F80C311B22F254D5F8EE
:1025B0000C310133C5F80C3106F80380D5F80C3125
:1025C0000133C5F80C31DBF800305C68002C40F0BA
:1025D000808141468748ADE0002FDFF83092DFF878
:1025E00024A20ADA742B1F4607D11B2289F8002087
:1025F000022289F801808AF80020A7F14102012A0D
:1026000026D9742F6DD0D5F80C311B22F254D5F891
:102610000C310133C5F80C3106F80380D5F80C31C4
:102620000133C5F80C31F754D5F80C310133C5F836
:102630000C31DBF800305B685BBB3A4641466E48C4
:1026400001F01EFD6D4B1B6898680EF077FA20E0D4
:10265000DBF80020412FD2F8101A20D1081D0523E5
:1026600090FBF3F303EB8303C31A02EB0121C2F8DF
:10267000103A01F618214FF4807230460FF018FB23
:1026800031465F4801F0FCFC3046FDF793FFC5F88A
:102690000C01002489F800408AF8004045E7481CF6
:1026A000052390FBF3F303EB8303C31A02EB012131
:1026B000C2F8103A01F618214FF4807230460FF03C
:1026C000F7FA31464E4801F0DBFC3046FDF772FF69
:1026D0000024C5F80C0189F800408AF80040422720
:1026E00023E79AF80020474C3F2A0FD94FF0000A01
:1026F000454884F800A089F800A001F0C1FC3F4BD8
:102700001B6898680EF01AFA54460EE7501CC0B2C7
:102710006D2B20703D4909F8023040F0DC80023218
:10272000002322700B54DBF800205468002C40F08A
:10273000D480374801F0A4FC304B1B6898680EF039
:10274000FDF9F2E6D5F80C21B3549DF928100829BB
:1027500001D07F2913D1D5F80C31002B3FF4E5AE21
:10276000013BC5F80C31DBF800305B68002B7FF4CF
:10277000DCAE08221146274801F082FCDCE709297B
:1027800040F08480D5F80C312348F454FFF780FDE5
:10279000A1460294A2460194DBF800300299D3F8D6
:1027A00008218A4249D9019A023253F822301B6823
:1027B000002B3DD0D5F80C210393194630460FF07D
:1027C00062FA90BB0AF1010ABAF1010F039B2BD008
:1027D000BAF1020F05D11A4649461048FFF758FDD5
:1027E00023E019460E48FFF753FD1EE020080020A5
:1027F000014501080E45010812450108B4040020F6
:1028000018450108240800201F450108E0070020A2
:102810001C450108404501086E470108464501086E
:1028200049450108DC0700209946029B01330293C9
:10283000019B0133402B0193AED1BAF1010F1FD19F
:10284000B9F1000F1CD04846FDF7B4FEFF2817D899
:10285000D5F80C31C3EB000A524609EB0301F0181E
:102860000EF09FFAD5F80C0182440AF10103C5F875
:102870000C31202306F80A30D5F80C310022F2542E
:102880003246AD49AD48FFF703FD4EE6DBF80030B8
:102890005B683BB9AA4801F0F3FBAA4B1B68986838
:1028A0000EF04CF9D5F80C310133FF2BC5F80C3183
:1028B0007FF63BAEA448FFF7EBFC9F48FFF7E8FC30
:1028C0000023C5F80C3114E64FF0FF37B846044634
:1028D0002BE6002429E6012427E61C4625E64FF4D2
:1028E000C07200219948DFF864A20EF080FA182225
:1028F00000210AA80EF07BFA002209920AAF1546C1
:102900009146A1569DF82430202904EB020638D0C8
:1029100001DC29B17BE022290AD03B2948D076E0AE
:10292000980700F1FA8043F004038DF824307BE02F
:1029300052B102F1FF3804EB0801019114F90810BB
:102940005C2901D1D9073FD403F0030101296BD0E1
:10295000022900F0E28069B943F003038DF82430C6
:102960003B68591C396003EB0513511C21444AF89C
:10297000231059E0032957D103F0FE036FF34103FD
:1029800011E052B102F1FF3804EB0801019114F992
:1029900008105C2901D1D80716D403F003010129DE
:1029A00042D16FF300038DF8243086F800903BE0AD
:1029B000A2B102F1FF3804EB0801019114F90810EB
:1029C0005C290BD1D90709D53046FDF7F3FD314617
:1029D000421C01980EF0E5F9424625E003F00200A2
:1029E00000F0FF01002840F0988003F00300012868
:1029F0001AD161F300038DF824303B6831709BB12C
:102A00000135052D10DC0AAB03EB85070CE0D80778
:102A10000AD443F001038DF824303B68591C03EBC2
:102A2000051339604AF823609DF82430590708D50A
:102A300003F0020303F0FF02002B6ED19246914691
:102A400041E00132FF2AF3DC052DF1DC39680F2962
:102A50007FF757AFECE7DBF800305B683BB93C48E9
:102A600001F00EFB374B1B6898680EF067F8374B88
:102A70009E592E2130460FF0F0F888B3831B019346
:102A8000DBF80070D7F8083105933B1D04934FF035
:102A900000080123059A42450BD9049A114651F8C2
:102AA000042F0392039A04911068D8B90133412B83
:102AB000F0D1012309F101094D454AEA030A20DB5F
:102AC000B9F1060F1DD00AAB4FEA891653F8293029
:102AD00002931E4B33440693029B002BBBDC66E043
:102AE0000190CDE7019A0793314612B10FF0CBF870
:102AF00001E0FDF755FD079B002842D008F10108D1
:102B0000D4E7BAF1010F05D154B121461148FFF7BE
:102B1000BFFB05E0BAF1020F02D10F48FFF7B8FB87
:102B20000B48FFF7B5FB0D4A0348002313700C4A0E
:102B30001370FFF7ADFBDCE44D450108504501087B
:102B40000F450108B4040020554501085C0600202B
:102B50006E470108744501088D450108E007002013
:102B6000240800201348FFF793FBDBF800000CF06B
:102B7000B1FE0020CBF800000CF0F9FA11B0BDE86E
:102B8000F08F07F504774FF40062002138460EF00D
:102B90002EF9039B029A9E68069B38464FF400610B
:102BA000B047054B186800F50470FFF759FB002388
:102BB00080E700BF9C450108DC0700202DE9F04FAD
:102BC0008F4D0FCDD9B00DF140094C460FC495E89B
:102BD0000F00002684E80F004FF48072314618A8D9
:102BE0000A960EF004F94FF400600CF039FE054629
:102BF000002800F001814FF4006231460EF0F7F832
:102C000006F016FC31467F4806F0ECFC7E4B7F4A0E
:102C10001B680893FF217E4B18A80EF059FF18A8D7
:102C2000FDF7C8FCB0F5006F03D32946794801F0E1
:102C300027FA18A8FDF7BEFC18AB411C754A2846B8
:102C40000EF046FF18A8FDF7B5FC714B724A04461A
:102C5000FF2118A80EF03CFF18A8FDF7ABFCC4F547
:102C60000063834204D829466A4801F009FA002427
:102C700018A8FDF79FFC18AB411C664A28190EF0F6
:102C800027FF18A8FDF796FC614B604A0444FF211A
:102C900018A80EF01DFF18A8FDF78CFCC4F5006302
:102CA000834204D829465B4801F0EAF9002418A8B9
:102CB000FDF780FC18AB411C564ADFF868B12819B3
:102CC0000EF006FF18A8FDF775FC544B1E6804446F
:102CD0009A4656456AD0A6F128080AA9404607F048
:102CE00001F808B100230A9356F8243C089A96F894
:102CF0002C70002B08BF5B4642450CBF4FF05908B3
:102D00004FF04E081846072F88BF00270993FDF79C
:102D100051FC1228099B16D9132200210BA80EF092
:102D200066F856F8242C0BAB02F1100C10685168B1
:102D30009E46AEE80300083262457346F6D112881B
:102D4000AEF800200BABCDF818800A9A04924FF031
:102D50000008CDF8148056F8142C039296F84B20F6
:102D6000029259F82720019200932D4A284BFF2107
:102D700018A80EF0ADFE18A8FDF71CFCC4F5006302
:102D8000834204D82946234801F07AF9444618A81A
:102D9000FDF710FC18AB411C1E4A28190EF098FED6
:102DA00018A8FDF707FC3668044492E7184B174A49
:102DB000FF2118A80EF08CFE18A8FDF7FBFBC4F548
:102DC0000063834204D82946124801F059F90024CF
:102DD00018A8FDF7EFFB18AB0E4A411C28190EF09E
:102DE00077FE06F06BFB29460A4801F049F92846B0
:102DF0000CF070FD002000E0692059B0BDE8F08FB4
:102E0000B83E0108D0290020AC40002073460108DC
:102E1000E00700201C450108C0460108403D002095
:102E20000D4701086C460108002101220846FFF702
:102E3000C5BE00002DE9F0470024ADF5027D4FF43A
:102E400080722146064602A801940DF0D0FF4FF48F
:102E50008072214642A80DF0CAFF4FF400600CF0CA
:102E6000FFFC0546002800F09C8021464FF40062DC
:102E70000DF0BDFF06F0DCFA7769336901A9304631
:102E800003EB870706F044FF40B97369019A9B1A68
:102E90003269044602EB830806462FE0022005F063
:102EA00003F928460CF016FD06F008FB012079E036
:102EB00016F0030A26D0D9F800303C4A3C4902A853
:102EC0000EF038FE02A8FDF775FBC4F500638342DF
:102ED00008F1040804D82946364801F0D1F8002446
:102EE00002A8FDF767FB02AB411C324A28190EF01D
:102EF000EFFD02A8FDF75EFB013604444745C146DD
:102F0000D6D81FE04346294A2B4902A80EF012FEEC
:102F100002A8FDF74FFBC4F50063834204D829469D
:102F2000244801F0ADF8544602A8FDF743FB02AB7C
:102F3000411C204A28190EF0CBFD02A8FDF73AFBF0
:102F40000444B8E7194B1D4AFF2142A80EF0C0FD0A
:102F500042A8FDF72FFB019BC3F50063834205D810
:102F60002946144801F08CF80023019342A8FDF78C
:102F700021FB019C0F4A411C42AB28190EF0A8FD11
:102F800042A8FDF717FB019B1844019006F096FA42
:102F90002946084801F074F828460CF09BFC0020F4
:102FA00000E069200DF5027DBDE8F087E007002014
:102FB0003C4701081C450108324701084447010805
:102FC000F8B50F490746FDF7EBFA0E4B1C680646AD
:102FD0001D46AC4212D02EB154F8241C3846FDF7E1
:102FE000DFFA48B954F8242C0749084801F048F89A
:102FF000A4F12800FFF71EFF2468EAE70020F8BDCF
:1030000071470108403D0020E00700207547010896
:10301000012A2DE9F04105460E461746984656DD31
:103020005C683A492046FDF7BBFA80B9032F07D107
:103030003749D8F80800FDF7B3FA08B9012200E0D3
:10304000002231462846BDE8F041FFF7B7BD3149BF
:103050002046FDF7A5FA58B9032F02D1D8F8080089
:1030600002E006F033FE4068BDE8F041FFF7A8BF7C
:10307000022F2CD128492046FDF792FA0746E8B9DD
:10308000264A274928460EF055FD044600B23B4625
:10309000224A244928440EF04DFD204484B220B237
:1030A0003B461E4A204928440EF044FD204400B20D
:1030B0001A4A1B4928440EF03DFD23E01B492046D7
:1030C000FDF76EFA18B9BDE8F04105F0C9BD134B24
:1030D000174A314628460EF0FBFC104B154A311AB0
:1030E000044628180EF0F4FC04440C4B124A311B21
:1030F00028190EF0EDFC2044311A084B0F4A2844E1
:103100000EF0E6FC0020BDE8F08100BF194F010879
:10311000934701089A47010815490108E007002074
:10312000A5470108D7470108FA4701081D480108CB
:103130002548010837480108674801089D480108EB
:10314000FFF766BF02210148FFF772B814010020A3
:1031500041F4807149004000CB0548BF0130C203F3
:1031600044BF80F4815080F00100CB03F2D580B2DF
:10317000704700230380704770B505460C468E18D3
:10318000B44206D214F8011B2888FFF7E1FF28801B
:10319000F6E770BD38B504460D4600880021FFF7FC
:1031A000D7FF0021FFF7D4FF2080288038BD000022
:1031B000014B1860704700BF28080020024B586878
:1031C000984208BF002070472C010020034B1A686A
:1031D00080E80C0050601860704700BF2C01002090
:1031E00038B5064B5C681D46AC4204D0A369204646
:1031F00098476468F8E7002038BD00BF2C01002024
:1032000008B510B9FFF7DAFF20B1C36913B19847C9
:10321000002008BD4FF0FF3008BD08B510B9FFF71A
:10322000CDFF20B1036A13B19847002008BD4FF0CD
:10323000FF3008BD10B508B9FFF7C0FFC36ABDE88D
:103240001040184710B508B9FFF7B8FF036F13B166
:10325000BDE81040184710BDF7B50CF06DFD0746EE
:103260000BF088FF0F4D104C019009262B4622468B
:10327000394600960D4800F003FF0BF07BFF324605
:1032800003462946204600F0FBFE094800F0F8FE00
:103290000849002241F2883003B0BDE8F0400DF04B
:1032A000B1BA00BF69490108334901084949010819
:1032B0006E4701085932000810B50CF03DFD0B4C6B
:1032C000014622460A4800F0DBFE204600F0D8FE08
:1032D000084800F0D5FE002207494FF47A700DF03F
:1032E00091FA0DF0C7FA002010BD00BF5449010843
:1032F000494901086E47010859320008C3B2A3F1D9
:103300003000C0B209280FD9A3F16102192A02D8EE
:10331000A3F1570005E0A3F14102192A03D8A3F154
:103320003700C0B270470020704700002DE9F0411F
:10333000032A86B01C4639DD02AE10273A4600212A
:1033400030460DF054FD0225A0688DF809500DF0AF
:1033500039FB8046A0680DF035FBC0F3072040EA3A
:103360000820ADF80A00606807F0C6FB2946039004
:103370000022284608F0BCFD051E03DA0D48FEF7C2
:1033800087FF13E0E4682046FDF714F92146024662
:103390008DE8C0000023284608F036FC011E02DA42
:1033A0000548FEF775FF284608F0FCFD06B0BDE8AD
:1033B000F08100BF7C490108944901080020FFF713
:1033C00041BF000070B5012A86B014D104A90020C5
:1033D000FFF716FF9DF8150002909DF8140001906C
:1033E0009DF8130000909DF812309DF811209DF873
:1033F00010101A482AE0022A2BD15E68002416F920
:10340000140004A978B1FFF779FF0001C5B20D558A
:1034100006EB440393F90100FFF770FF28430855BA
:103420000134062CEBD10020FFF7F7FE9DF81500C4
:1034300002909DF8140001909DF8130000909DF8F3
:1034400012309DF811209DF810100548FEF720FF5E
:1034500002E00448FEF71CFF06B070BDAD4901084C
:10346000A9490108DA49010801210148FEF7E0BE37
:103470004C01002002210148FEF7DABE3401002091
:1034800008B5037A4BB1FEF72FFFFFF75BFEFFF79E
:10349000EBFFBDE80840FFF7EDBF08BD10B50446DF
:1034A0000CF05AFE0CF048FD2046FFF7E9FF00F053
:1034B0009BFC07F085FC0DF0E5F803F0B7FB0BF083
:1034C000B1F894E80300FFF7F7FE002010BD30B517
:1034D00004464FF6FF750020013989B2A94210D089
:1034E00014F8013B0822584010F0800F4FEA4003C7
:1034F00018BF83F03103D8B2531E13F0FF02F3D18B
:10350000EAE730BD10B5044640B1806808B10CF060
:10351000E1F92046BDE810400CF0DCB910BD13B550
:1035200002AC134644F8040D0A460620214603F077
:10353000A5FC02B010BD70B50446C67808460D461D
:10354000FDF738F8864215D1A08830440CF088F990
:103550000146A06088B1E089A2890830FFF7DFFF4B
:1035600070B92846FDF726F829460246A0680DF0F6
:1035700009FC38B16FF00A0070BD6FF00B0070BD30
:103580006FF0040070BD000070B50446C0780130D3
:103590000CF066F9054678B3E278002101320DF0AF
:1035A00026FCE089E27829460830FFF7B8FFA088BA
:1035B00001300CF055F9064618B928460CF08AF986
:1035C0001AE0A288002101320DF011FCE378E089B5
:1035D000A288184431460830FFF7A1FF3246294639
:1035E0000748FEF755FE28460CF074F930460CF0FB
:1035F00071F96FF00A0070BD6FF00B0070BD00BF75
:103600003B4A0108064B5A7842B9012159709A7019
:10361000044905484FF480630BF0C1BC704700BFFC
:103620002C080020613A0008454A01082DE9F74FAF
:1036300014468A4699468346FCF7BCFFA4B2C7B23B
:1036400004EB07081FFA88F808F10B0525F00305BD
:10365000ADB228460CF004F90646002852D02A469E
:1036600000210DF0C4FB06F108033A4659461846FE
:103670000DF097FB03463B442246184651460DF099
:1036800090FB4146C01BFFF722FF49233370EE2316
:1036900073701F4BB480B070F7709A88A6F80690CC
:1036A000120B04321C4633F8222095420CD2521BD6
:1036B000B2F5227F04D2DB78012B01D8FFF7A2FFFD
:1036C000A488134F14B104E0FFF79CFF6FF01B08B0
:1036D00013E002A92B4641F8044D3246062003F0C0
:1036E00093FB804648B92C44A4B2BC80240B04341C
:1036F00037F824305D1B27F8245030460CF0EAF8E8
:10370000404601E06FF00B0003B0BDE8F08F00BF52
:103710002C0800201FB501308DF8071003900123FD
:103720000DF1070203A9062003F06EFB05B05DF85A
:1037300004FB00002DE9F04F0E03B6B285B0341D36
:1037400006F5805501F10408DFF81C9102900F4640
:103750009346A4B2ADB24FEA880810200CF080F86E
:10376000824600287BD0102200210DF040FB082269
:1037700051462046FFF7D3FE002848D19AF8002092
:10378000492A0FD0FF2A07D19AF80120FF2A03D136
:103790005046FFF7B7FE55E04FF0FF328AF804209D
:1037A0008AF80520BAF804104A1EB2F5007F04D248
:1037B0009AF80320501E030612D5504609EB080A5A
:1037C000FFF7A0FE9AF802200834CC2AA4B235D123
:1037D00044213046FFF79EFF44228AF802202DE064
:1037E0000A4492B202F10B0121F003018BB29AF864
:1037F00001100193EE290ED1AAF80E40AAF80C2070
:1038000059465046029B984748B30B3010D050465B
:10381000FFF778FE21E009EB08029178CC2907D167
:10382000442130460392FFF775FF039A44219170BB
:103830005046FFF767FE019B1C44A4B204F1080345
:103840009D428AD8AC4238BF2C1B07F10407064BB7
:1038500034BFA4B2082423F82740002000E05046DB
:1038600005B0BDE8F08F00BF2C08002038B50C4B28
:103870009A7CEE2A05461C4605D0024600210948DE
:10388000FFF758FF58B9A37DEE2B01D1002038BDBA
:103890002A4601210348FFF74DFF0028F6D038BD26
:1038A0002C080020373500082DE9F341804609B97E
:1038B000C7894FE0012963D1C788002308226946E0
:1038C000384600930193FFF72AFE044600285AD198
:1038D0009DF80030492B01D000245BE09DF80130B9
:1038E000EE2BF9D19DF8033098F803009842F3D1FC
:1038F0000BF0B6FF0546002848D09DF803000BF0FA
:10390000AFFF064618B928460BF0E4FF3EE09DF8ED
:103910000320294607F10800FFF701FEB8F80E0062
:103920009DF8032031460830FFF7F9FD9DF803208C
:10393000314628460DF026FA30B128460BF0CAFF72
:1039400030460BF0C7FF25E028460BF0C3FF30469A
:103950000BF0C0FF00213846FFF7DCFEC8B90F4B63
:103960003D0B043503EB8505AB78CC2BB4D144215A
:1039700007F47040FFF7CEFE58B94423AB7008E05F
:103980006FF0150406E06FF0040403E06FF00B0421
:1039900000E00446204602B0BDE8F0812C0800207B
:1039A00070B5044680890BF05BFF054628B3E089BB
:1039B000A28929460830FFF7B2FD064628B12846FD
:1039C0000BF088FF6FF0040070BDA1892846FFF757
:1039D0007EFDA378834206D1E38843B1E2899A420F
:1039E00005D0012100E031462046FFF75DFF284663
:1039F0000BF070FF6FF00A0070BD6FF00B0070BD30
:103A000073B505030023ADB2009304464B234FF476
:103A10008052294606208DF8003003F04FFA10B18D
:103A20006FF0040018E002A9EE2641F8045D0423BB
:103A30006A4606208DF8016003F0E6F90028EFD110
:103A4000064B043403EB8402967040F6FC7223F8B4
:103A50002420DA780132DA7002B070BD2C08002020
:103A6000F8B5284C4FF0FF3104F10C000BF018FCB6
:103A7000002838D1E378002B35D0A37CEE2B04D07E
:103A8000A37DEE2B2FD1012600E00646A28833034A
:103A90000433A380130B5D1C022D08BF002504EB2B
:103AA0008501184F897C442916D1002229461648E1
:103AB000FFF740FE2846FFF7A3FFA0B9B888CC2146
:103AC00000F4704007EB8606FFF724FECC23B374A6
:103AD000FB78013BFB7006E0A9B28B4202D00135B6
:103AE000EDB2D9E7BA800023084863700BF054FCAC
:103AF000A37813B106480BF037FD0020BDE8F8406D
:103B00000BF035BB2C080020153B000838080020BE
:103B10003408002073B584890B3424F00304A4B264
:103B2000064620460BF09CFE054630B30146224671
:103B3000F089FFF7F4FC10B16FF0040418E0114EA7
:103B400002A9B38841F8043D2A462346062003F023
:103B50005BF90028F0D1B188214489B2B180090B0A
:103B6000043136F821301C1B26F821406FF00A047E
:103B700028460BF0AFFE204601E06FF00B0002B0CC
:103B800070BD00BF2C08002038B54FF0FF3105464E
:103B90000D480BF085FB0446A0B92846FFF766FEEA
:103BA000054628B908480BF0F7FB6FF0010038BD57
:103BB0002146FFF779FE04462846FFF7A3FC02489A
:103BC0000BF0EAFB204638BD38080020F8B50E4659
:103BD00014460746002848D0002946D0002A44DD74
:103BE000FCF7E8FC802840D8B4F5007F3DDC204895
:103BF00043783BB18378013383704FF0FF31083055
:103C00000BF037FC4FF0FF311A480BF049FB70BB4B
:103C10003846FFF72BFE0546D8B183889C4207D172
:103C2000C37880682246314618440DF0ABF858B18D
:103C30002246EB8931463846FFF7F8FC044620B9A6
:103C400001462846FFF730FE04462846FFF75AFC97
:103C500006E00346224631463846FFF7E7FC0446B5
:103C600004480BF099FB2046F8BD6FF01500F8BD35
:103C70002C08002038080020F8B50F4616460546E7
:103C800050B349B342B31368002B25DD4FF0FF3129
:103C900015480BF005FB044608BB2846FFF7E6FD78
:103CA000054611480BF078FBDDB1AA8833689342D2
:103CB00006DA28463260FFF725FC6FF01B00F8BDDE
:103CC000EB78A968384619440DF06BF8AB8833607F
:103CD0002846FFF717FC02E06FF01500F8BD2046FC
:103CE000F8BD6FF00100F8BD380800202DE9F34160
:103CF000012ACCBF5C68314C31494FF480572046D3
:103D000016461D460197FCF74BFC78B9042E51D19D
:103D1000EC682046FCF74EFC012302462146A868C9
:103D2000FFF754FF002845D026480DE026492046DD
:103D3000FCF736FC804600BB032E3BD138460BF027
:103D40008FFD044618B92148FEF7A2FA32E03A4640
:103D500041460DF04CF801AA2146A868FFF78CFFF8
:103D600018B11B48FEF794FA03E021461948FEF704
:103D70008FFA20460BF0AEFD1CE017492046FCF7F9
:103D80000FFC38B9032E15D1A868FFF7FDFE88B1E6
:103D90001248D9E720461249FCF702FC044648B90C
:103DA000024601460F48FFF7C5FC224601210D4897
:103DB000FFF7C0FC02B0BDE8F08100BF704701080A
:103DC0004B4A01084F4A0108634A0108674A010843
:103DD0007B4A01088F4A01089D4A0108A14A01084F
:103DE00000490108893500082DE9F743644E317810
:103DF00009B10024C0E0182230460CF0F8FF06F1AB
:103E00000C000BF06BFD0446002840F0B5805D48C7
:103E1000FEF7E4F9B046ADF8004025462746A14636
:103E200004220DEB02012803CDF80490FFF777FB85
:103E30009DF804304B2BECB222D19DF80530CC2BF1
:103E400003D0EE2B01D0442B1AD188F81230002277
:103E500021464D48FFF76EFC9DF80530EE2B14D13E
:103E6000B8F8102040F6FC739A4215BF02ABF37805
:103E7000DB1901331ABF03F8084C0137F37004E073
:103E80002046FFF7BDFD00285AD10135022D08F16B
:103E90000408C5D13A4C4FF04409BFB1013FF37853
:103EA0001DF8075063B12803442100F47040FFF768
:103EB00031FC002844D104EB850585F81290ECE72D
:103EC0002846FFF79DFD0028E7D039E0F37823B1BD
:103ED000F3782B4D022B06D118E03846FFF790FD02
:103EE0000028F5D02CE0AB7CCC2B03D1B27DEE2AA0
:103EF00002D119E0442BF9D0B27DCC2A03D1EE2BAC
:103F00001CD1012311E0442A18D1F8E70423CC2165
:103F10000020AB80FFF7FEFB044678B9CC23AB74DE
:103F2000EB78013BEB700DE000231A46043336F8C2
:103F30002330C3F5805303EB0233B380002401E048
:103F40000446C8B90E4D002105F108000BF04AFDEA
:103F500088B901232B70AB881B0B043335F8233051
:103F6000B3F5227FBFF445AFEB78012B3FF641AFAD
:103F7000FFF748FB00E00446204603B0BDE8F083AD
:103F80002C08002058010020A1390008022983BF15
:103F9000862303604FF0FF300120704786230360C3
:103FA000002070478623036000207047862303604B
:103FB00000207047F0B50E4687B014460021142249
:103FC00001A8013E1D460CF012FF012E01D8671911
:103FD00018E00CF0FBFC092303604FF0FF3015E004
:103FE00096F900300A2B04F1010405D100230122C7
:103FF000074901A803F00AFC00230122314601A869
:1040000003F004FCBC422646EAD1284607B0F0BDC6
:104010000C6E0108862303604FF0FF30704738B5FF
:1040200041F0004075460BF01BFC294604460BF09E
:1040300049FC204638BD38B5084642F00041754677
:104040000BF028FC294604460BF03CFC204638BD0A
:1040500070B502FB01F545F0004076460BF000FC20
:10406000314604460BF02EFC24B12A46002120469E
:104070000CF0BDFE204670BD08460BF02BBCFEE7E1
:104080000FB413B54FF0FF310C480BF009F904469B
:1040900050B905A9049801910DF0E8FE084B1B6882
:1040A000044698680CF04AFD04480BF075F9204668
:1040B00002B0BDE8104004B0704700BF44080020C3
:1040C000B40400200138042816D8DFE800F0110DF0
:1040D00009050300102300E0002343F0080300E07B
:1040E000002343F0040300E0002343F0020300E058
:1040F000002343F0010300E00023014A13607047EE
:104100007001002070B586B0144600211822684660
:104110001E460CF06CFE174B0193174B0293174B86
:104120000393174B0493012C164B059307DC164B96
:104130001648196806B0BDE87040FEF7A9B800241B
:104140005DF824502846FCF735FA7168421C284671
:104150000DF099FD20B10134062CF1D10C4803E09B
:10416000E0B2FFF7AFFF0B4806B0BDE87040FEF7C6
:104170008FB800BFE64A0108EC4A0108F24A01087C
:1041800015490108ED49010870010020F74A0108AE
:10419000224B01080A4B010808B5064B06481F22AE
:1041A00001211A60FEF744F80448BDE808400BF00E
:1041B00095BB00BF7001002064010020440800206E
:1041C00000EB810020F007004FF0807140F8083CC0
:1041D000354B40F80C3C4FF0123340F8103C4FF098
:1041E000033340F8143C4FF0023340F8183C4FF0D2
:1041F000013340F81C3C312340F8243C302340F884
:10420000283C292340F82C3C282340F8303C272325
:1042100040F8343C262340F8383C252340F83C3C09
:10422000242340F8403C232340F8443C222340F818
:10423000483C212340F84C3C202340F8503C1923B3
:1042400040F8543C182340F8583C172340F85C3C95
:10425000162340F8603C6FF0020340F8643C4FF0D6
:10426000113340F8683C4FF0103340F86C3C4FF08D
:10427000093340F8703C4FF0083340F8743C4FF07D
:10428000073340F8783C4FF0063340F87C3C4FF061
:10429000053340F8803C4FF0043340F8041C40F8EC
:1042A000202C40F8843D704781A000080F49D1F8C8
:1042B000883043F47003C1F888300D4B1A68002031
:1042C00042F001021A6098601A6822F0A85222F4A3
:1042D00010221A604FF48052DA601A6822F48022A9
:1042E0001A6098614FF000638B60704700ED00E04A
:1042F0000010024010B5084B044618684FF47A735A
:10430000B0FBF3F000F088F8002221464FF0FF30B8
:1043100000F030F8002010BD7401002008B5032023
:1043200000F016F80020FFF7E5FF0AF09BF90020E7
:1043300008BD0000024A136801331360704700BFD4
:1043400048080020014B1868704700BF480800204B
:10435000074AD36823F4E0631B041B0C43F0BF63DC
:10436000000243F4003300F4E0600343D36070477D
:1043700000ED00E0174BDB68C3F3022330B5C3F157
:1043800007041D1D042C28BF0424062D4FF0010531
:1043900005FA04F404F1FF348CBF033B00230C4006
:1043A0009C4005FA03F3013B1A40002842EA04024C
:1043B0004FEA0212AFBF00F1604000F00F00064B61
:1043C000D2B2A5BF00F56140D2B21A5480F80023E2
:1043D00030BD00BF00ED00E014ED00E04209012314
:1043E00000F01F0003FA00F0014B43F82200704771
:1043F00000E100E0BFF34F8F0549064BCA6802F4A5
:10440000E0621343CB60BFF34F8F00BFFDE700BFF7
:1044100000ED00E00400FA050138B0F1807F0AD217
:10442000064B074A5860F02182F82310002007222B
:1044300098601A6070470120704700BF10E000E0EC
:1044400000ED00E0044B1A6804280CBF42F004029F
:1044500022F004021A60704710E000E010B5044634
:1044600008B9012010BD437F03F0FF0213B90277A2
:104470000AF03EF90223637723793BB92368134A94
:104480005A619A6822F018029A6006E0E268A16810
:10449000204600F01DF80028E3D16279236812B9A4
:1044A0004FF0FF3200E022691A619A6822F0600141
:1044B00062690A439A609A6822F08001A2690A43FD
:1044C0009A6001236377002010BD00BFB71DC104AF
:1044D00030B51F23012404FA03F50D4203D113F173
:1044E000FF33F8D215E0082A08D012D9102A03D0D9
:1044F000182A10D1062B02E0072B00E00F2B0AD858
:1045000003685961996821F018010A439A600020F4
:1045100030BD002AF4D0012030BD000030B50028A5
:1045200051D00168294B99424FF0140408D8284A09
:104530000A44B2FBF4F292004264A3F2074306E09D
:10454000244B0B44B3FBF4F39B004364224B85687C
:10455000C268036445EA02040269144342691443D1
:104560008269022380F825301443C2690B68144322
:10457000026A23F4FF4323F0700322431343B5F58B
:10458000804F0B6012D0026C144B416C9A420CBFEE
:10459000134A144A0F2314688B4024EA0303136060
:1045A0004468136804FA01F11943116000230122E1
:1045B000C363C36203634363836380F8252080F889
:1045C0002430184630BD012030BD00BF0704024032
:1045D000F8FFFDBFF8FBFDBF0004024000000240F1
:1045E000A8000240A804024090F82520022A10B535
:1045F00003D00422C263012010BD0268046C11685C
:10460000836B21F00E011160116821F0010111602E
:10461000426C012101FA02F26260002480F8251048
:1046200080F8244013B19847204610BD184610BDAD
:10463000394B1A69900741BF38494A6842F0010274
:104640004A601B69190741BF344A536843F00203AB
:104650005360314B1A69D20641BF30494A6842F073
:1046600004024A601B699B0641BF2C4A536843F011
:1046700008035360284B1A69500641BF27494A680E
:1046800042F010024A601B69190641BF234A536871
:1046900043F020035360204B1A69D20541BF1F49E4
:1046A0004A6842F040024A601B69980541BF1B4AB4
:1046B000536843F080035360174B1A69510441BF9C
:1046C00016494A6842F480724A601B691A0441BF65
:1046D000124A536843F4007353600F4B9A69002ADF
:1046E000BFBF0E494A6842F480624A601B699B035F
:1046F00008D50A4A536843F400635360064B4FF4ED
:1047000000321A61044B9A6942F000429A614CF2FD
:10471000FA321A61704700BF002002404C080020A6
:10472000074A536943F48023536172B601F58073DD
:10473000401A0A680A5004319942FAD162B67047A9
:1047400000200240064B5A69002ABFBF054A9A6002
:1047500002F188320020B4BF9A600120704700BF88
:104760000020024023016745034A536943F0004398
:1047700053610020704700BF0020024070B504461E
:10478000FFF7E0FD204D06462A691F4BD20308D5EE
:10479000611CF9D0FFF7D6FD801B8442F4D80320BA
:1047A00070BD1A69900722D41A6911071FD41A69BB
:1047B000D2061CD41A69960619D41A69550616D45D
:1047C0001A69140613D41A69D00510D41A69910510
:1047D0000DD41B695A040AD40B4A13691B0406D46E
:1047E0009369002B03DB106910F4003003D0FFF74E
:1047F0001FFF012070BD136913F0010302D00123D4
:10480000136170BD184670BD002002402DE9F843C9
:10481000254C99462378012B06460F46904640D0FA
:1048200001234CF250302370FFF7A8FF0546002803
:1048300032D160601D48056815F4806517BF0368B4
:10484000257723F4806303601CBF022323774EB9CE
:10485000456945F0010545610126C7F80080C7F8A4
:1048600004900CE0731E012B01D9002607E041469D
:104870003846FFF755FF022EF7D14FF480264CF251
:104880005030FFF77BFF054626B1084A536923EAFB
:104890000606566100F034F8002323702846BDE870
:1048A000F8830220BDE8F8834C0800200020024075
:1048B000064B10F0010F1EBF5A6942F004025A6104
:1048C0005A6942F480325A61704700BF00200240AA
:1048D0000A4B4FF4FF62596992FAA2F2B2FA82F2DD
:1048E000904021F4FF61084358615A6942F0020286
:1048F0005A615A6942F480325A617047002002407E
:10490000154B1A7F012A02D01A7F032A0CD1134AB1
:10491000116841F400611160116821F400611160B7
:10492000116841F4007111601A7F022A03D00A4A0B
:10493000127F032A0CD1094A116841F48051116099
:10494000116821F480511160116841F48061116097
:1049500000221A77704700BF4C0800200020024058
:104960002DE9F843354C2378012B0646884662D062
:1049700001274CF250302770FFF700FF0546002852
:1049800054D12F4B60601A6812F4007F1A680DD062
:1049900022F400721A601A68510505D51A6822F4CB
:1049A00080621A60032308E0277709E0520506D5E4
:1049B0001A6822F480621A600223237700E02077CD
:1049C0003368012B0DD17068FFF772FF4CF2503045
:1049D000FFF7D4FE1A4A536923F0040305465361D6
:1049E00022E04FF0FF33C8F80030B768DFF850908E
:1049F000B268F36813449F4216D271683846FFF7D5
:104A000067FF4CF25030FFF7B9FED9F8143023F4A9
:104A1000FF6323F00203C9F8143018B1C8F800701E
:104A2000054601E00137E3E7FFF76AFF0023237043
:104A30002846BDE8F8830220BDE8F8834C08002032
:104A4000002002402DE9F04FDFF884910B68DFF879
:104A5000848185B04C4601930023019ADA4000F02E
:104A6000B180012202FA03FA019A12EA0A0600F062
:104A7000A7804A6822F0100EBEF1020F14D14FEA4F
:104A8000D30C00EB8C0C03F0070BDCF820704FEA22
:104A90008B0B0F2505FA0BF527EA05050F6907FAB9
:104AA0000BF72F43CCF820704FEA430B0327056820
:104AB00007FA0BFC6FEA0C0C174005EA0C0507FA25
:104AC0000BF70EF1FF3E3D43BEF1010F056010D81C
:104AD0008568CF680CEA050507FA0BF72F43876056
:104AE000456825EA0A0AC2F300159D4045EA0A0511
:104AF0004560C5680CEA050C8D6805FA0BF545EABA
:104B00000C05C560D5005BD5D8F8605045F00105AF
:104B1000C8F86050D8F8605023F0030E0EF1804EB4
:104B200005F001050EF5803E039503F0030C039D8F
:104B3000DEF808504FEA8C0C0F2707FA0CF7B0F19B
:104B4000904F25EA070511D0204FB84210D007F545
:104B50008067B8420ED007F58067B8420CD007F5E1
:104B60008067B84214BF0727042706E0002704E047
:104B7000012702E0022700E0032707FA0CFC4CEAB9
:104B80000505CEF80850D9F80050F74312F4803FDD
:104B90000CBF3D4035432560656812F4003F0CBFF3
:104BA0003D4035436560A56812F4801F0CBF3D4051
:104BB0003543A560E568920254BF3D403543E5604A
:104BC00001334AE705B0BDE8F08F00BF000400489C
:104BD00000040140001002400AB181617047816207
:104BE0007047000008B5044B5969014202D0586172
:104BF00002F08CFB08BD00BF0004014003689A6905
:104C0000910744BF00229A629A69D2075EBF9A69EF
:104C100042F001029A61704730B5039C0568234356
:104C2000640D04F4806444F07F7444F4583468687C
:104C3000C1F3090144F47F740B4344F0030443EAD5
:104C4000024220EA040414436C6030BD2DE9F041B7
:104C5000069F0446884616461D462268936938EA30
:104C600003030CBF01230023B34213D16B1CF5D007
:104C700055B9202384F84130002384F8423084F869
:104C800040300320BDE8F081FFF75CFBC01B85428C
:104C9000E3D2EEE70020BDE8F0810000036870B5C4
:104CA0000446986910F010000D4616460BD170BDF1
:104CB00099698A0613D4691CFAD035B1FFF742FB13
:104CC000801B854201D32368F2E7202384F841301A
:104CD000002384F8423084F84030032070BD102255
:104CE0002025DA612046DD61FFF788FF2268074B47
:104CF00051680B40536004236364002384F84150DF
:104D000084F8403084F84230012070BD00E800FE95
:104D100070B504460D46164623689B699B071CD454
:104D2000324629462046FFF7B9FFC0B96A1CF3D0C6
:104D30006DB9636C43F020036364202384F8413031
:104D4000002384F8423084F84030032070BDFFF720
:104D5000F9FA801B8542DFD2EBE7002070BD01200D
:104D600070BD0000F7B5099E1F46184B009304461E
:104D700015464FF08073FAB2FFF74EFF324608999E
:104D80002046FFF7C5FF20B1636C042B0ED1012034
:104D900019E0012F23680BD1EDB29D62089B0096AC
:104DA000002280212046FFF751FF60B103200AE076
:104DB0002A0A9A62089932462046FFF7A9FF00287E
:104DC000E2D12368E8E703B0F0BD00BF0020008017
:104DD000F7B5099E1F46174B00930446154600235E
:104DE000FAB2FFF719FF324608992046FFF790FF05
:104DF00020B1636C042B0ED1012019E0012F236830
:104E00000BD1EDB29D62089B009600224021204606
:104E1000FFF71CFF60B103200AE02A0A9A62089992
:104E200032462046FFF774FF0028E2D12368E8E706
:104E300003B0F0BD0020008070B504460D46164654
:104E400023689B699B061AD4324629462046FFF701
:104E500025FFB0B96DB9636C43F020036364202370
:104E600084F84130002384F8423084F84030032035
:104E700070BDFFF767FA801B8542E1D2EBE70020A7
:104E800070BD012070BD10B5044600284AD090F8CE
:104E9000413003F0FF021BB980F8402009F03CFCD0
:104EA000242384F841302368E1681A6822F0010263
:104EB0001A60626822F070621A619A68012922F40D
:104EC00000429A60A26803D142F400429A6007E06F
:104ED00042F4044202299A6004BF4FF400625A600F
:104EE0005A68216942F0007242F400425A60DA685E
:104EF00022F40042DA6062690A43A16942EA0122AF
:104F0000DA60E169226A0A431A601A6842F0010213
:104F10001A6000202023606484F84130206384F804
:104F2000420010BD012010BD2DE9F04F9B4690F8C6
:104F3000413085B0202B04460F460392BDF83CA0BB
:104F4000DDF8409040F09F800E9B0BB901209BE064
:104F5000BAF1000FFAD090F84030012B00F09380A6
:104F6000012580F84050FFF7EDF91923009006461F
:104F70002A464FF400412046FFF768FE804600288D
:104F80004ED1212384F84130402384F842300E9BD7
:104F9000606463626063A4F82AA00196CDF8009073
:104FA0005B46039A39462046FFF7DCFE18B1636C76
:104FB00084F8408056E0638D9BB2FF2B05D9FF2219
:104FC000228500904FF0807306E0628D009092B2CF
:104FD00022854FF00073D2B239462046FFF71CFEFF
:104FE000324649462046FFF793FE002839D1636ACE
:104FF0002268591C61621B789362638D228D013B8C
:10500000013A9BB292B26385228502BB638D9BB24B
:10501000EBB100964B4680212046FFF717FE08B102
:10502000032031E0638D9BB2FF2B05D9FF2222853F
:1050300000904FF0807306E0628D009092B222855E
:105040004FF00073D2B239462046FFF7E5FD638D7D
:105050009BB2002BC4D1324649462046FFF7ECFEF6
:1050600018B1636C042BDBD170E72368084A202158
:10507000D9615D682A405A6084F8411084F8400084
:1050800084F8420000E0022005B0BDE8F08F00BFC8
:1050900000E800FE2DE9F04F9B4690F8413085B0C6
:1050A000202B04460F460392BDF83CA0DDF840904B
:1050B00040F0A2800E9B0BB901209EE0BAF1000FD8
:1050C000FAD090F84030012B00F09680012580F84E
:1050D0004050FFF737F91923009006462A464FF44F
:1050E00000412046FFF7B2FD8046002874D12223FC
:1050F00084F84130402384F842300E9B6064636240
:105100006063A4F82AA00196CDF800905B46039A4C
:1051100039462046FFF75CFE18B1636C84F8408086
:1051200057E0638D9BB2FF2B354B05D9FF220093CF
:1051300022854FF0807306E0628D009392B2228543
:105140004FF00073D2B239462046FFF765FD009656
:105150004B46002204212046FFF778FD00283BD172
:10516000636A5A1C62622268526A1A70228D638DC9
:10517000013A013B92B29BB222856385F2B9638DFD
:105180009BB2DBB100964B4680212046FFF75EFDC7
:1051900010BB638D9BB2FF2B05D9FF2222850090A7
:1051A0004FF0807306E0628D009092B222854FF03E
:1051B0000073D2B239462046FFF72EFD638D9BB2B5
:1051C000002BC4D1324649462046FFF735FE28B1B0
:1051D000636C042B3FF470AF03200EE02368094A90
:1051E0002021D9615D682A405A6084F8411084F812
:1051F000400084F8420000E0022005B0BDE8F08FD6
:105200000024008000E800FE90F841007047000094
:10521000024B186800F4C060704700BF0070004087
:10522000174B1A68B0F5007F02F4C0621AD1B2F5CC
:10523000007F20D01A68134922F4C06242F4007241
:105240001A60114A1268B2FBF1F132224A4322B1CC
:105250005969490501D5013AF9E7094B5B695B05D5
:105260000BD408E0B2F5806F1FBF1A6822F4C06249
:1052700042F480621A60002070470320704700BF2C
:105280000070004040420F007401002037B51E4DF1
:10529000AB6DD900044602D5FFF7BAFF0EE0AB6D47
:1052A00043F08053AB65AB6D03F080530193019BDA
:1052B000FFF7AEFFAB6D23F08053AB65B0F5007F19
:1052C00006D1802C0CD9A02C8CBF022301230CE02A
:1052D000802C07D808D0A4F170025342534104E057
:1052E000002302E0032300E0022308490A6822F0B9
:1052F00007021A430A60086800F00700C01A18BFC6
:10530000012003B030BD00BF001002400020024069
:1053100032498B6813F00C0F10B509D08B6803F07D
:105320000C030C2B1AD1CB6803F00303012B15D10E
:105330000A682A4B120754BFD3F894301B68284AD6
:1053400054BFC3F30323C3F3031352F823408B6802
:1053500013F00C0F0CBF2046002011E08B6803F007
:105360000C03042B07D01D4B9B6803F00C03082B88
:1053700004D11C4800E01C48002401E00020044641
:105380008A68164B02F00C020C2A26D1DA68D8681B
:1053900002F00302C0F30210022A00F1010006D05D
:1053A000032A0CD1DB680F4AC3F3062303E0DB6852
:1053B0000D4AC3F30623B2FBF0F0434306E0DA687C
:1053C000B4FBF0F0C2F3062200FB02F3C868C0F39E
:1053D000416001304000B3FBF0F010BD001002400E
:1053E000684B010800127A000024F40003682DE9DC
:1053F000F341DD06044640F189809F4DAB6813F010
:105400000C0F4DD12B68980703D5A369002B00F032
:1054100042822A68984B206A110756BFD3F894300D
:105420001B681B0903F0F003834216D2FFF72EFF1F
:10543000002840F030822B6843F008032B602B6873
:1054400023F0F002236A13432B606B68E26923F4B4
:105450007F4343EA02236B6014E02B6843F00803A8
:105460002B602B6823F0F00303432B606B68E26929
:1054700023F47F4343EA02236B60FFF707FF002812
:1054800040F00982FFF744FFAB687C4AC3F3031383
:10549000D35CD8407A4B18600020FEF72BFF35E034
:1054A00083691BB32B6843F001032B60FEF74AFFAF
:1054B00006462A68704B920706D4FEF743FF801B0E
:1054C0000228F6D90320E7E11A6842F008021A60C0
:1054D0001A6822F0F001226A0A431A605A68E169E8
:1054E00022F47F4242EA01225A600FE02B6823F047
:1054F00001032B60FEF726FF06462B689F0705D5A4
:10550000FEF720FF801B0228F7D9DBE72368DE07C0
:1055100003D423689D0748D491E0574DAB6803F04E
:105520000C03082B09D0AB6803F00C030C2B0BD138
:10553000EB6803F00303032B06D12B689803E8D52F
:105540006368002BE5D1A6E16368B3F5803F06D020
:10555000B3F5A02F08D12B6843F480232B602B6870
:1055600043F480332B6008E02A6822F480322A60FA
:105570002A6822F480222A605BB1FEF7E3FE064629
:105580002B689903C5D4FEF7DDFE801B6428F7D98C
:1055900098E7FEF7D7FE06462B689A03B9D5FEF7C3
:1055A000D1FE801B6428F7D98CE7334DAB6803F03C
:1055B0000C03042B09D0AB6803F00C030C2B13D1A4
:1055C000EB6803F00303022B0ED12B685B0503D5B8
:1055D000E368002B00F05F816B68226923F0F853C9
:1055E00043EA02636B602AE0E368C3B12B6843F4CB
:1055F00080732B60FEF7A6FE06462B681E4A5F05E9
:1056000005D4FEF79FFE801B0228F6D95AE753689F
:10561000216923F0F85343EA016353600FE02B68DC
:1056200023F480732B60FEF78DFE06462B68580529
:1056300005D5FEF787FE801B0228F7D942E72368CD
:10564000190703D423685A072FD497E063690A4DDA
:10565000C3B1D5F8943043F00103C5F89430FEF798
:1056600071FE0646D5F894309B07EBD4FEF76AFE30
:10567000801B0228F6D925E7001002404E4B010896
:1056800074010020D5F8943023F00103C5F894305C
:10569000FEF758FE0646D5F894309F07D2D5FEF7A0
:1056A00051FE801B0228F6D90CE77D4DAB6DD8006A
:1056B0000AD4AB6D43F08053AB65AB6D03F0805300
:1056C0000193019B012700E00027764E3368D9053E
:1056D00003D5A368012B11D118E0336843F480731C
:1056E0003360FEF72FFE80463368DA05F1D4FEF70B
:1056F00029FEC8EB00000228F6D9E3E6052B0CD101
:10570000D5F8903043F00403C5F89030D5F89030C8
:1057100043F00103C5F890300CE0D5F8902022F05A
:105720000102C5F89020D5F8902022F00402C5F8B7
:10573000902073B1FEF706FE41F288380646D5F890
:1057400090309B070ED4FEF7FDFD801B4045F6D937
:10575000B8E6FEF7F7FD41F288380646D5F89030F6
:10576000980705D457B1AB6D23F08053AB6505E0C6
:10577000FEF7E8FD801B4045F0D9A3E623689906B3
:1057800002D4A26A4ABB5FE0636A454D93B1D5F883
:10579000983043F00103C5F89830FEF7D3FD064674
:1057A000D5F898309A07ECD4FEF7CCFD801B022880
:1057B000F6D987E6D5F8983023F00103C5F898307C
:1057C000FEF7C0FD0646D5F898309B07D9D5FEF701
:1057D000B9FD801B0228F6D974E6314DAB6803F0A1
:1057E0000C030C2B57D02B68022A23F080732B60FC
:1057F00038D1FEF7A7FD06462B6829489F0125D41E
:10580000A66B636B226BF60646EA0321E36A013A54
:105810000B4343EA0211E36B5B08013B41EA43524D
:10582000236C5B08013B42EA4363C360036843F0B7
:1058300080730360C36843F08073C360FEF782FD2A
:1058400004462B68990107D5002025E0FEF77AFD74
:10585000801B0228D0D935E6FEF774FD001B022814
:10586000EFD92FE62B681A015EBFEB6823F0030324
:10587000EB60EB6823F0887323F48033EB60FEF772
:1058800061FD04462B689B01DED5FEF75BFD001B26
:105890000228F7D916E6012002B0BDE8F08100BF6A
:1058A0000010024000700040554A136803F00703DF
:1058B0008B422DE9F04105460E4603D32B68D907EC
:1058C0000DD426E0136823F007030B43136013681D
:1058D00003F007039942F1D00120BDE8F0816B6825
:1058E000484C032B22681FD112F0007FF4D0A2682D
:1058F00022F003021343A360FEF724FD6B68032B21
:10590000074641F2883823D1A36803F00C030C2B1F
:1059100016D129688A073ED53A48836823F0F002F9
:10592000AB681343836036E0022B02D112F4003FD0
:10593000DCE713B912F0020FD8E712F4806FD5E755
:10594000FEF700FDC01B4045DED90320BDE8F08115
:10595000022B0AD1A36803F00C03082BD9D0FEF761
:10596000F1FCC01B4045F5D9EFE773B9A36813F00C
:105970000C0FCED0FEF7E6FCC01B4045F6D9E4E79D
:10598000FEF7E0FCC01B4045DFD8A36803F00C0322
:10599000042BF5D1BDE71A4A136803F007039E42B2
:1059A0000AD311F0040F174C11D0A36823F4E0625E
:1059B000EB681343A3600AE0136823F00703334343
:1059C0001360136803F007039E4285D1E9E70B07D4
:1059D00006D5A3682A6923F4605343EAC203A3608F
:1059E000FFF796FCA368084AC3F30313D35CD840BF
:1059F000064B18600020FEF77DFC0020BDE8F0811A
:105A000000200240001002404E4B010874010020AB
:105A1000014B1868704700BF74010020044B054A11
:105A20009B68C3F30223D35C034A1068D8407047D5
:105A3000001002405E4B010874010020044B054A2F
:105A40009B68C3F3C223D35C034A1068D8407047F5
:105A5000001002405E4B010874010020F8B5454B70
:105A6000DA6812F0030F04460E461D4600680DD09A
:105A7000DA6802F0030282421DD1E2B1DB6862689B
:105A8000C3F302130133934215D11FE0022807D05C
:105A9000032809D001280ED11B689F0769D50CE0A7
:105AA0001B6813F4806F05E01A68910305D41B6826
:105AB00013F4802F01D10120F8BDEA68636822F059
:105AC0007302013B104340EA0310E8602B6823F0A7
:105AD00080632B60FEF736FC07462B6825481A01C9
